:100000000C9464000C948C000C948C000C948C0068
:100010000C948C000C948C000C948C000C947D0A35
:100020000C948C000C948C000C948C000C947B0B26
:100030000C948C000C948C000C948C000C948C0010
:100040000C94310B0C948C000C94FF0A0C94D90A7C
:100050000C948C000C948C000C948C000C948C00F0
:100060000C948C000C948C000000000024002700ED
:100070002A000000000023002600290000000008DC
:10008000000201000003040700000000000000005F
:10009000010204081020408001020408102001021F
:1000A0000408102000000000250028002B00040494
:1000B0000404040404040202020202020303030310
:1000C00003030200370C6A1011241FBECFEFD8E0E3
:1000D000DEBFCDBF11E0A0E0B1E0E0E8F6E202C093
:1000E00005900D92AC3AB107D9F723E0ACEAB1E044
:1000F00001C01D92A333B207E1F710E0C3E6D0E0E0
:1001000004C02197FE010E943211C236D107C9F7FF
:100110000E94180D0C9433130C94000096E0899FF4
:10012000D0011124AB55BD4F90967C936E935F9791
:1001300091E091969C939197E0911203F0911303B3
:1001400090911103992339F0309751F0811108C033
:100150008091C1020994309719F05C968C91FACF86
:1001600008958F929F92AF92BF92FF920F931F9329
:10017000CF93DF93F09014032BE02F1508F44CC0BD
:100180002091160308E512E0021B110927FD1395C3
:10019000000F111F000F111F20911503C8E8D0E0B8
:1001A000C21BD10927FDD395CC0FDD1FCC0FDD1F5E
:1001B0004E010D2E000CAA08BB089801012E000C60
:1001C000440B550B281939094A095B09DC010E94C7
:1001D000B61024EB30E040E050E00E948C10820E1C
:1001E000931EA41EB51E8C169D062CF0E8018016E9
:1001F00091060CF4E4012297CC0FDD1F2FB7F89481
:100200008F2D90E0FC01EE0FFF1FE80FF91FE25960
:10021000FD4FD283C1832FBFDF91CF911F910F91EB
:10022000FF90BF90AF909F908F900895AF92BF9234
:10023000CF92DF92EF92FF920F931F93CF93DF93B2
:100240006C017B018B01040F151FEB015E01AE18E1
:10025000BF08C017D10759F06991D601ED91FC9103
:100260000190F081E02DC6010995892B79F7C50130
:10027000DF91CF911F910F91FF90EF90DF90CF9082
:10028000BF90AF900895FC014481558160817181D8
:1002900087E193E00C941601FC01538D448D252FCA
:1002A00030E0842F90E0821B930B541710F0CF9610
:1002B000089501970895FC01918D828D981761F042
:1002C000A28DAE0FBF2FB11D5D968C91928D9F5F59
:1002D0009F73928F90E008958FEF9FEF0895FC0138
:1002E000918D828D981731F0828DE80FF11D858DEB
:1002F00090E008958FEF9FEF0895FC01918D228D7E
:10030000892F90E0805C9F4F821B91098F73992702
:10031000089581ED91E00E947D0121E0892B09F48F
:1003200020E0822F089580E090E0892B29F00E9440
:10033000890181110C9400000895FC01A48DA80F7F
:10034000B92FB11DA35ABF4F2C91848D90E0019617
:100350008F739927848FA689B7892C93A089B18937
:100360008C91837080648C93938D848D981306C0D8
:100370000288F389E02D80818F7D80830895EF923C
:10038000FF920F931F93CF93DF93EC0181E0888F4F
:100390009B8D8C8D98131AC0E889F989808185FF1F
:1003A00015C09FB7F894EE89FF896083E889F989C1
:1003B00080818370806480839FBF81E090E0DF91C3
:1003C000CF911F910F91FF90EF900895F62E0B8D16
:1003D00010E00F5F1F4F0F731127E02E8C8D8E11D1
:1003E0000CC00FB607FCFACFE889F989808185FF38
:1003F000F5CFCE010E949D01F1CFEB8DEC0FFD2FCB
:10040000F11DE35AFF4FF0829FB7F8940B8FEA89F2
:10041000FB8980818062CFCFCF93DF93EC01888D01
:100420008823B9F0AA89BB89E889F9898C9185FD6F
:1004300003C0808186FD0DC00FB607FCF7CF8C91FD
:1004400085FFF2CF808185FFEDCFCE010E949D0117
:10045000E9CFDF91CF910895833081F028F4813086
:1004600099F08230A9F008958730A9F08830C9F05A
:100470008430B1F4809180008F7D03C08091800032
:100480008F7780938000089584B58F7784BD089519
:1004900084B58F7DFBCF8091B0008F778093B000C3
:1004A00008958091B0008F7DF9CFCF93DF93282FEF
:1004B00030E0F901E458FF4F8491F901E057FF4F14
:1004C000D491F901E255FF4FC491CC23A1F08111E1
:1004D0000E942C02EC2FF0E0EE0FFF1FEE58FF4FB2
:1004E000A591B491EC91ED2381E090E009F480E0D6
:1004F000DF91CF91089580E090E0FACF862F0C94A1
:1005000055021F93CF93DF93282F30E0F901E45871
:10051000FF4F8491F901E057FF4FD491F901E25563
:10052000FF4FC491CC23A9F0162F81110E942C02F9
:10053000EC2FF0E0EE0FFF1FEC55FF4FA591B491AB
:100540008FB7F894EC91111108C0D095DE23DC939D
:100550008FBFDF91CF911F910895DE2BF8CF862FAB
:10056000642F0C9481029091000189130BC0E2EC7E
:10057000F0E0E4919FEF90930001E13049F028F022
:10058000E23061F060E00C94810210926E00FACFCC
:1005900090916F009D7F90936F00F4CF90917000C9
:1005A0009D7F9093700091E09093B0009091B10086
:1005B000987F94609093B1001092B300E3CFCF93F3
:1005C000DF9390E0FC01E057FF4F249182559F4F4D
:1005D000FC0184918823C9F090E0880F991FFC01E9
:1005E000E859FF4FA591B491FC01EC55FF4FC5911F
:1005F000D49161110DC09FB7F8948C9120958223FE
:100600008C938881282328839FBFDF91CF91089501
:10061000623051F49FB7F8943C91822F80958323E8
:100620008C93E8812E2BEFCF8FB7F894EC912E2B83
:100630002C938FBFEACF862F642F0C94DF024F924A
:100640005F926F927F928F929F92AF92BF92CF9262
:10065000DF92EF92FF920F931F93CF93DF9300D01F
:1006600000D01F92CDB7DEB78C012A013B018091EB
:1006700000018331C9F08F3F09F47FC00F900F90C4
:100680000F900F900F90DF91CF911F910F91FF90DE
:10069000EF90DF90CF90BF90AF909F908F907F9022
:1006A0006F905F904F900895E2ECF0E084918D831D
:1006B00087FDE4CF61E083E10E94DF028D81882322
:1006C00021F09D81923009F05CC14801B12CA12C30
:1006D00060E072E18AE790E0A50198010E948C1029
:1006E00029833A834B835C8369017A0181E0C81ACC
:1006F000D108E108F1089FEFC916D104E104F10423
:1007000009F00CF413C160E472E48FE090E0A501FD
:1007100098010E948C1069017A0181E0C81AD10801
:10072000E108F1089D81923009F098C08FEFC8165A
:10073000D104E104F10409F00CF4DDC160E970EDCD
:1007400083E090E0A50198010E948C1069017A0174
:1007500091E0C91AD108E108F1088FEFC816D10459
:10076000E104F10411F00CF0A3C183E09091B10019
:10077000987F892B8093B100E1C083E180930001D1
:10078000E2ECF0E094919D839F3F09F477CF9130A4
:1007900029F158F0923009F43FC08D8187FD6ECF6A
:1007A00061E083E10E94DF028CCF14BC15BC84B5EC
:1007B000826084BD85B5816085BDE1ECF0E0E491A7
:1007C000F0E0EE0FFF1FEC55FF4F85919491E3EAA7
:1007D000F0E0E491E093C4011D826CCF10928000A0
:1007E00010928100809181008860809381008091C7
:1007F0008100816080938100E1ECF0E0E491F0E021
:10080000EE0FFF1FEC55FF4F85919491E3EAF0E066
:10081000E491E093C3014ECF1092B0001092B1006A
:100820008091B00082608093B0008091B1008160BF
:100830008093B100E1ECF0E0E491F0E0EE0FFF1FF7
:10084000EC55FF4F859194919093C2018093C10123
:10085000E3EAF0E0E491E093C0012CCF9FEFC916EA
:10086000D104E104F10409F00CF489C068E478EEE5
:1008700081E090E0A50198010E948C1069017A0145
:1008800081E0C81AD108E108F1089D81992309F493
:1008900028C19FEFC916D104E104F10409F00CF45A
:1008A0001EC162E17AE780E090E0A50194010E9418
:1008B0008C1069017A0181E0C81AD108E108F108B9
:1008C0009D81992309F4EBC08FEFC816D104E10490
:1008D000F10411F008F0BFC086E048CF64E274EF85
:1008E00080E090E0A50194010E948C1069017A01DA
:1008F00081E0C81AD108E108F10885E09FEFC91628
:10090000D104E104F10409F008F430CF62E17AE7A0
:1009100080E090E0A50194010E948C1069017A01A9
:1009200091E0C91AD108E108F108CECF81E09D819C
:1009300091111CCF95B5987F892B85BD2FEF3FEF87
:10094000A901411451046104710409F043C09D815F
:10095000913009F45EC0923009F46DC091118ECED1
:10096000C7BC2093CD013093CE014093CF0150936B
:10097000D00180916E00826080936E007FCE82E015
:10098000D6CFB12CA12C60E072E18AE790E0A501FE
:1009900098010E948C1069017A0181E0C81AD1087F
:1009A000E108F108C114D10491E0E906F10404F56D
:1009B00091E08D81813011F680918100887F892BB3
:1009C000809381002FEF3FEFA9014114510461048E
:1009D0007104F9F0D801AA0FBB1FA30192010E9474
:1009E000AB1028EE33E040E050E00E94F510AFCFAE
:1009F00068E478EE81E090E0A50198010E948C10F7
:100A000069017A0181E0C81AD108E108F10893E090
:100A1000D0CFD0928900C09288002093C901309332
:100A2000CA014093CB015093CC0180916F0082604A
:100A300080936F0023CEC092B3002093C501309302
:100A4000C6014093C7015093C80180917000826035
:100A50008093700013CEC980DA80EB80FC809AE02E
:100A6000F594E794D794C7949A95D1F791E0C91A71
:100A7000D108E108F10887E079CEC980DA80EB80FF
:100A8000FC808AE0F594E794D794C7948A95D1F7CF
:100A900091E0C91AD108E108F10885E04BCF8FEF4A
:100AA000C816D104E104F10409F038F784E042CF1C
:100AB00068E478EE81E090E0A50198010E948C1036
:100AC00069017A0191E0C91AD108E108F1088FEFB4
:100AD000C816D104E104F10411F00CF0FFCE84E05B
:100AE00045CE8FEFC816D104E104F10411F00CF0EB
:100AF000D8CE83E01FCF82E039CE3FB7F894809103
:100B0000B3019091B401A091B501B091B60126B5A1
:100B1000A89B05C02F3F19F00196A11DB11D3FBF35
:100B2000BA2FA92F982F8827BC01CD01620F711D04
:100B3000811D911D42E0660F771F881F991F4A95FE
:100B4000D1F708958F929F92AF92BF92CF92DF928A
:100B5000EF92FF926B017C010E947D054B015C01CD
:100B6000C114D104E104F104B9F00E947D056819B3
:100B700079098A099B09683E73408105910580F3D4
:100B800021E0C21AD108E108F10888EE880E83E05E
:100B9000981EA11CB11CE4CFFF90EF90DF90CF9086
:100BA000BF90AF909F908F9008952FB7F894609169
:100BB000AF017091B0018091B1019091B2012FBF4E
:100BC00008950F931F93CF93DF93C82FD62F86E0FE
:100BD000C89FF0011124EB55FD4F11A2878D90A104
:100BE00081309105F1F058F082309105F1F10397D1
:100BF00009F440C0DF91CF911F910F9108956623B2
:100C0000C9F361E070E08C2F0E948E000E94D50530
:100C10006093FD027093FE028093FF0290930003A5
:100C2000E9CF0E94D5050091FD021091FE022091AE
:100C3000FF0230910003AB01BC01401B510B620B62
:100C4000730B80910F0390911003B0E0A0E0841724
:100C50009507A607B70748F462E070E08C2FDF9194
:100C6000CF911F910F910C948E0063E070E0D11131
:100C7000C1CFF4CF70E060E0F1CF6F927F928F929E
:100C80009F92AF92BF92CF92DF92EF92FF920F931B
:100C90001F93CF93DF9381E0809311030E94D505CA
:100CA000009101031091020320910303309104038A
:100CB000AB01BC01401B510B620B730B80910D0308
:100CC00090910E03B0E0A0E084179507A607B70740
:100CD00008F014C1C0E080910B03C81760F4E091E4
:100CE0000703F0910803EC0FF11D62E080810E9480
:100CF000DF02CF5FF0CF712C812C912C54018394B3
:100D000080910C03781608F05FC0072D10E0E09189
:100D10000903F0910A03E00FF11F61E080810E9456
:100D2000DF02E0910903F0910A03E00FF11F60E098
:100D300080810E948102D501C401072C04C0880F64
:100D4000991FAA1FBB1F0A94D2F76C017C01E09483
:100D5000F094612C80910B036816F8F4C62DD0E056
:100D6000E0910703F0910803EC0FFD1F80810E94C2
:100D700055022496CC0FDD1FCB55DD4F892B41F456
:100D8000888199818C299D29998388836394E2CFF6
:100D9000888199818E219F21F7CFE0910903F091FD
:100DA0000A03E00FF11F61E080810E9481028091BF
:100DB000090390910A03080F191F60E0F801808170
:100DC0000E94DF0273949CCFC5EAD2E0FE018FEF50
:100DD0009FEF278D30A1232B21F4148E968F858FC2
:100DE00011A2369622E0E13EF20799F7F12C96E047
:100DF000D92E80910B03F81608F050C0E12C0F2D6E
:100E000010E0000F111F03551D4F20910C03E21637
:100E100008F042C0F801608171810E2C02C0769505
:100E200067950A94E2F7F29E900111242E0D311D70
:100E3000E5EAF2E080E0458D568D2417350709F488
:100E400061C08F5F36968A30B1F760FF23C0E5EA54
:100E5000F2E090E080E0448D411117C0E09105037D
:100E6000F0910603E20FF31F4081D89EF001D99E56
:100E7000F00D1124EB55FD4F448F368F258F10A2B6
:100E8000178E61E00E94E10505C0019636968A3012
:100E9000910509F7E394B9CFF394ABCF10E089A1A2
:100EA0008111182F2696F2E0C13EDF07C1F70E949C
:100EB000D50560930103709302038093030390931D
:100EC00004031123D9F08091C6028823B9F08091E0
:100ED000C4029091C502019789F48091C102DF910B
:100EE000CF911F910F91FF90EF90DF90CF90BF9027
:100EF000AF909F908F907F906F9008951092110304
:100F000080E0EDCF6170BECF089590E080E008955D
:100F1000CF93DF93EB0140E050E0BA010E941F0342
:100F2000BE01DD0F880B990B0E94A20583E1DF91C2
:100F3000CF910C94B302CF93DF93D62FC42F682F99
:100F400084E00E9481026D2F83E00E9481026C2F59
:100F500082E0DF91CF910C948102CF93DF93EC017B
:100F600060E08E810E94810261E08E810E94810298
:100F700060E08E810E9481028BE891E00197F1F799
:100F8000DF91CF910895CF92DF92EF92FF920F936E
:100F90001F93CF93DF936C017C0187E0E80EF11C77
:100FA000D0E0C0E0062F10E0B8010C2E02C075950D
:100FB00067950A94E2F76170F70181917F010E94C1
:100FC00081022196C430D10579F7C601DF91CF9116
:100FD0001F910F91FF90EF90DF90CF900C94AD0791
:100FE000CF92DF92EF92FF920F931F93CF93DF93F5
:100FF000EC01F62E642F8C810E9481028D818F3F3F
:1010000019F060E00E9481020F2D10E08F8584FFAF
:1010100025C06E0187E0C80ED11CF12CE12CB8016F
:101020000E2C02C0759567950A94E2F76170F6017F
:1010300081916F010E948102FFEFEF1AFF0A88E0A1
:10104000E816F10461F7CE01DF91CF911F910F9166
:10105000FF90EF90DF90CF900C94AD07B80184E043
:10106000759567958A95E1F7CE010E94C3076F2DAC
:10107000CE01DF91CF911F910F91FF90EF90DF9004
:10108000CF900C94C30740E0682F87E193E00C9465
:10109000F00781E00E9443088BE39FE10197F1F79D
:1010A0000895CF93DF93823029F4909126039860BE
:1010B0009093260380932A0310922B0380E480935D
:1010C0002C0380E180932D0380E580932E0361E063
:1010D00080911B030E94DF0280911C038F3F19F057
:1010E00061E00E94DF0261E080911D030E94DF0247
:1010F000C7E1D3E09E01275133408091260384FD50
:101100000BC084E090E021962817390744F461E091
:101110008E810E94DF02EECF88E090E0F4CF8BE377
:101120009DE00197F1F760E080911B030E9481022E
:1011300060E080911D030E94810280911C038F3F1B
:1011400019F060E00E9481028091260384FD34C082
:1011500063E087E193E00E94C307CBE4D6E4CE01CD
:101160000197F1F763E087E193E00E94C3072197BD
:10117000F1F763E087E193E00E94C30783E592E023
:101180000197F1F762E087E193E00E94C307809145
:10119000260380620E94430884E0809327038CE04A
:1011A0000E9443080E94490882E08093280386E059
:1011B000DF91CF910C94430880620E9443088BE436
:1011C00096E40197F1F78091260380620E9443081C
:1011D00083E592E00197F1F78091260380620E94F7
:1011E0004308D5CFE0912A03E23040F4E150F0E02B
:1011F000E95EFC4F848980680C944308E1E0F7CFF6
:1012000041E00E94F00781E090E008958F929F9264
:10121000AF92BF920F931F93CF93DF93CDB7DEB7FB
:10122000A1970FB6F894DEBF0FBECDBF19A2423012
:1012300008F44AE08E010F5D1F4F842E912CB12CD3
:10124000A12CA50194010E94F510E62FB901CA0155
:10125000EA3044F5E05DD801EE938D01232B242B79
:10126000252B79F790E080E0109769F0FD0101905F
:101270000020E9F73197AF014A1B5B0BBD0187E105
:1012800093E00E941601A1960FB6F894DEBF0FBE40
:10129000CDBFDF91CF911F910F91BF90AF909F90E5
:1012A0008F900895E95CD7CFFC0101900020E9F709
:1012B0003197AF01481B590BBC0187E193E00C94B7
:1012C00016018AE590E00E94B10040E060E080E015
:1012D0000E949B071092BD010E94490882E491E0A0
:1012E0000C945409FC0180819181009711F00C94B9
:1012F000D41108950F931F93CF93DF93EC0188814E
:101300009981009759F02A813B812617370730F0E1
:1013100081E0DF91CF911F910F9108958B016F5F55
:101320007F4F0E945D12009759F0998388831B8339
:101330000A832C813D81232B59F7FC011082E8CFD1
:1013400080E0E7CFEF92FF920F931F93CF93DF934D
:1013500000D0CDB7DEB78C0169831A82FC01E4802E
:10136000F580FFEFEF1AFF0AB7010E947A09882380
:1013700081F0F8012081318184819581BE016F5F08
:101380007F4F820F931F0E942C13F801F582E48295
:1013900081E00F900F90DF91CF911F910F91FF90FF
:1013A000EF900895EF92FF920F931F93CF93DF93E7
:1013B000EC017B018A01BA010E947A0928813981F6
:1013C000811114C02115310519F0C9010E94D411F1
:1013D000198218821D821C821B821A82CE01DF9123
:1013E000CF911F910F91FF90EF9008951D830C8373
:1013F000B701C9010E942C13F1CFFC0111821082A8
:10140000138212821582148250E040E06BEA71E090
:101410000C94D20950E040E06BEA71E00C94D209E0
:10142000CF93DF93EC01FB018617970749F06081AA
:1014300071816115710541F0448155810E94D20985
:10144000CE01DF91CF91089588819981009711F0A5
:101450000E94D411198218821D821C821B821A825A
:10146000EFCFDF92EF92FF920F931F93CF93DF9313
:101470007C01DC0114960D911C910930110514F0CA
:1014800008E010E0D0E0C0E0C017D107F4F4F701A5
:1014900084819581C817D90728F40190F081E02D47
:1014A000309781F41092AC01ECEAF1E0D080CE01EB
:1014B0000E947610D81621F06D2DCE010E947E106C
:1014C0002196E2CFEC0FFD1FF1CFC8010E947610EC
:1014D000882359F060E0C801DF91CF911F910F91EF
:1014E000FF90EF90DF900C947E10DF91CF911F91D1
:1014F0000F91FF90EF90DF9008951F920F920FB61B
:101500000F9211242F933F934F935F936F937F9389
:101510008F939F93AF93BF93EF93FF938091C501F8
:101520009091C601A091C701B091C801892B8A2B67
:101530008B2BD1F19091C001E091C101F091C201DA
:101540008081892780838091C5019091C601A091F7
:10155000C701B091C801181619061A061B069CF49B
:101560008091C5019091C601A091C701B091C801B9
:101570000197A109B1098093C5019093C601A09379
:10158000C701B093C801FF91EF91BF91AF919F91B7
:101590008F917F916F915F914F913F912F910F901C
:1015A0000FBE0F901F901895809100010E94B3020A
:1015B000EACF1F920F920FB60F9211242F933F93F1
:1015C0004F935F936F937F938F939F93AF93BF934B
:1015D000EF93FF9381ED91E00E949D01FF91EF91C8
:1015E000BF91AF919F918F917F916F915F914F913B
:1015F0003F912F910F900FBE0F901F9018951F9243
:101600000F920FB60F9211242F938F939F93EF9306
:10161000FF93E091E101F091E2018081E091E70127
:10162000F091E80182FD1BC090818091EA018F5FFB
:101630008F732091EB01821741F0E091EA01F0E015
:10164000EF52FE4F958F8093EA01FF91EF919F91AA
:101650008F912F910F900FBE0F901F901895808142
:10166000F4CF1F920F920FB60F9211242F933F9336
:101670008F939F93AF93BF938091AF019091B001EF
:10168000A091B101B091B2013091AE0123E0230FDE
:101690002D3758F50196A11DB11D2093AE01809301
:1016A000AF019093B001A093B101B093B2018091CA
:1016B000B3019091B401A091B501B091B60101962A
:1016C000A11DB11D8093B3019093B401A093B50106
:1016D000B093B601BF91AF919F918F913F912F91A0
:1016E0000F900FBE0F901F90189526E8230F0296BB
:1016F000A11DB11DD2CF1F920F920FB60F921124D0
:101700002F933F934F935F936F937F938F939F9309
:10171000AF93BF93CF93DF93EF93FF938091AD018E
:10172000C0919202D0E087FF24C0109285001092F1
:1017300084008091AD018F5F8093AD018091AD01F8
:10174000082E000C990B8C179D0724F48091AD0195
:101750008C30C4F18091840090918500049680348F
:101760009C4908F47AC08091840090918500049689
:1017700076C08091AD01082E000C990B8C179D0747
:10178000C4F6E091AD018E2FEE0F990BFC01EE0F28
:10179000FF1FE80FF91FE259FD4F808186FFC9CF77
:1017A000E091AD018E2FEE0F990BFC01EE0FFF1FA4
:1017B000E80FF91FE259FD4F808160E08F730E94AE
:1017C0008102B7CF2091840030918500E091AD0176
:1017D0008E2FEE0F990BFC01EE0FFF1FE80FF91F84
:1017E000E259FD4F81819281820F931F909389006E
:1017F00080938800E091AD018E2FEE0F990BFC01D4
:10180000EE0FFF1FE80FF91FE259FD4F808186FFA1
:1018100011C0E091AD018E2FEE0F990BFC01EE0F80
:10182000FF1FE80FF91FE259FD4F808161E08F73C0
:101830000E948102FF91EF91DF91CF91BF91AF9113
:101840009F918F917F916F915F914F913F912F91D8
:101850000F900FBE0F901F90189580E49CE9909315
:101860008900809388008FEF8093AD01E3CFCF9301
:101870001092D4011092D30188EE93E0A0E0B0E082
:101880008093D5019093D601A093D701B093D8014E
:101890008EE191E09093D2018093D10185EC90E0AC
:1018A0009093DE018093DD0184EC90E09093E00161
:1018B0008093DF0180EC90E09093E2018093E1015E
:1018C00081EC90E09093E4018093E30182EC90E05E
:1018D0009093E6018093E50186EC90E09093E80117
:1018E0008093E7011092EA011092EB011092EC0153
:1018F0001092ED0110921A03109219038AE391E0FD
:1019000090931803809317038AE080931B03CFEF13
:10191000C0931C038BE080931D0386E080931E031D
:1019200087E080931F0388E08093200389E0809301
:101930002103109222031092230310922403109289
:1019400025031092260381E00E94510880919202A3
:101950008C3008F06AC091E0980F909392028093C7
:10196000140390E0FC01EE0FFF1FE80FF91FE2598E
:10197000FD4F88EB9BE0928381831092A702109227
:10198000AB021092AA021092AC0280E391E0909315
:10199000A6028093A502E1ECF2E010821482138289
:1019A0001582369682E0ED3FF807B9F784E091E0C2
:1019B000909308038093070381E091E090930A03DA
:1019C0008093090384E080930B0383E080930C03EE
:1019D00088E091E090930603809305038AE090E00D
:1019E00090930E0380930D0384EF91E09093100386
:1019F00080930F03109213031092120310920103AD
:101A00001092020310920303109204031092110328
:101A10008FE992E00E94FD0989E992E00E94FD09A8
:101A200083E992E0CF910C94FD09C0931403A5CFF4
:101A3000CF93DF9300D000D000D0CDB7DEB778943D
:101A400084B5826084BD84B5816084BD85B58260C3
:101A500085BD85B5816085BD80916E008160809374
:101A60006E001092810080918100826080938100DD
:101A700080918100816080938100809180008160ED
:101A8000809380008091B10084608093B100809148
:101A9000B00081608093B00080917A008460809370
:101AA0007A0080917A00826080937A0080917A0037
:101AB000816080937A0080917A00806880937A00B8
:101AC0001092C100E091E101F091E20182E0808397
:101AD000E091DD01F091DE011082E091DF01F091F3
:101AE000E0018FEC80831092E901E091E501F09133
:101AF000E60186E08083E091E301F091E4018081DA
:101B000080618083E091E301F091E401808188604D
:101B10008083E091E301F091E4018081806880831B
:101B2000E091E301F091E40180818F7D808382E088
:101B30000E94510861E084E00E94DF0261E083E0DE
:101B40000E94DF0261E082E00E94DF0280911403C4
:101B50008C3008F053C061E085E00E94DF02809184
:101B60001403282F30E0F901EE0FFF1FE20FF31FDF
:101B7000E259FD4F9081907C9560908392EF909315
:101B8000150394E9909316032CE0622F0E9426110E
:101B9000829FB001112430E020E0AB01420F531FBF
:101BA000FA01EE0FFF1FE40FF51FE259FD4F908180
:101BB00096FD16C02F5F3F4F2C30310571F7811114
:101BC0000FC01092800082E0809381001092850007
:101BD00010928400B19A80916F00826080936F00B0
:101BE000E09114038E2F90E0FC01EE0FFF1FE80F31
:101BF000F91FE259FD4F8081806480838AE590E07F
:101C00000E94B10089E992E00E940A0A10E000E017
:101C1000C8010E9476108F3F09F0E6C00F5F1F4F8A
:101C200008301105A9F70E9449088EE591E00E944D
:101C3000540983E992E00E940A0A15C01A3209F099
:101C4000C0C083E992E00E940A0A0E9449088EE51A
:101C500091E00E94540942E350E060E070E08CEBB8
:101C600092E00E941F030E943D06182F8823D9F39B
:101C700042E350E060E070E08EEE92E00E941F03CD
:101C80001332E1F68091970290919802892B59F3D3
:101C900063E972E089E992E00E94100A1A821982CF
:101CA0001C821B821E821D8269E972E0CE010196B0
:101CB0000E94100ACE0101960E94310ACE010196BF
:101CC0000E9472090E94490882E591E00E9454092D
:101CD00042E350E060E070E08CEB92E00E941F0372
:101CE00068EE73E080E090E00E94A2050E9449083F
:101CF00082E491E00E94540990E0E92E90E0F92EF0
:101D000001E00E943D06182F8093BF0140E060E093
:101D100080E00E949B07112309F4ACC162E370E0EC
:101D20008EEE92E00E9488078091BE01882309F41C
:101D300094C041E060E080E00E949B07133209F00C
:101D400066C063E972E089E992E00E94100A1A8293
:101D500019821C821B821E821D8269E972E0CE01FB
:101D600001960E94100ACE0101960E94310ACE010E
:101D700001960E9472090E9449088CE691E00E9437
:101D8000540962E370E08CEB92E00E94880768EEF1
:101D900073E080E090E00E94A20583E992E00E9457
:101DA0000A0A1092BE010E946109E114F10409F4CB
:101DB000A8CF0E948901882309F4A3CF0E940000C4
:101DC000A0CF8091970290919802089708F04BCF8E
:101DD000612F83E992E00E94A2090E94F20883E940
:101DE00092E00E9443013FCF10E000E0C8010E9452
:101DF0007610882309F47ACF682F89E992E00E944F
:101E0000A2090F5F1F4F0830110581F76FCF1A32FB
:101E100089F483E992E00E940A0A0E9449088EE54B
:101E200091E00E94540962E370E08CEB92E00E9422
:101E30008807BBCF8091970290919802089708F08D
:101E4000B4CF612F83E992E00E94A2090E94F208B8
:101E500083E992E00E944301A8CF8091BD018111E6
:101E60000EC1133209F0A9C02091A3023091A4023F
:101E700080919D0290919E0228173907C1F48091AC
:101E80009F029091A0026091990270919A0200972E
:101E900009F4B3C06115710539F4232B09F4BBC0F3
:101EA000FC01808190E0B4C00E942313B1C08091F6
:101EB000B7019091B80101969093B8018093B70152
:101EC0000E9449088AE891E00E94540940E060E0DD
:101ED00081E00E949B0762E370E08AEF90E00E943D
:101EE000880768EE73E080E090E00E94A20540E081
:101EF00060E080E00E949B078091B7019091B8015B
:101F000004972CF10E9449088AE991E00E94540943
:101F100040E060E081E00E949B078AE0A82EB12C9F
:101F200064EF71E084EF91E00E94880764EF71E054
:101F300080E090E00E94A205F1E0AF1AB10881F7BD
:101F40001092B8011092B7010E9461098FC00E94DF
:101F5000490881EA91E00E9454098090B70190906D
:101F6000B801092C000CAA08BB084AE0C501B4015D
:101F7000B7FE0EC041E06DE287E193E00E94F007FA
:101F800066277727CB01681979098A099B094AE0F6
:101F90000E94060962E370E08AEF90E00E948807E1
:101FA00068EE73E080E090E00E94A2050E9449087C
:101FB00082E491E00E94540959C01A3259F48FE921
:101FC00092E00E940A0A0E94490882E491E00E947D
:101FD000540950C08091A3029091A402089708F080
:101FE000E4CE612F8FE992E00E94A2090E94F208DC
:101FF0008FE992E00E9443013DC06115710559F0DF
:10200000232B49F0FB01808190E091958195910906
:10201000892B09F04CCF90E080E00E94B10040E0B5
:1020200061E080E00E949B0762E370E088EE93E04D
:102030000E9488070E94D5056093B9017093BA0188
:102040008093BB019093BC010093BD010E9449089D
:102050008AE791E00E9454091092B8011092B701EA
:1020600062E370E080E090E00E94A2058FE992E0D8
:102070000E940A0A8091BD01882309F496CE0E942D
:10208000D5058090B9019090BA01A090BB01B090A5
:10209000BC01681979098A099B096838734181056F
:1020A000910510F00E9461090E943D068A3209F0F4
:1020B0007CCE64E670E088EE93E00E94880700938F
:1020C000BE010E9449088EE591E00E9454091092D9
:1020D000BD016BCE83E992E00E94720989E992E02A
:1020E0000E9472098FE992E00C947209F999FECF6F
:1020F00092BD81BDF89A992780B50895262FF99948
:10210000FECF1FBA92BD81BD20BD0FB6F894FA9ADA
:10211000F99A0FBE01960895052E97FB1EF40094C0
:102120000E94A31057FD07D00E94F51007FC03D0B2
:102130004EF40C94A31050954095309521953F4F47
:102140004F4F5F4F089590958095709561957F4FA3
:102150008F4F9F4F08950E941711A59F900DB49F18
:10216000900DA49F800D911D11240895B7FF0C942C
:10217000AB100E94AB10821B930B08952F923F92DD
:102180004F925F926F927F928F929F92AF92BF9287
:10219000CF92DF92EF92FF920F931F93CF93DF9333
:1021A000CDB7DEB7CA1BDB0B0FB6F894DEBF0FBE90
:1021B000CDBF09942A88398848885F846E847D84DD
:1021C0008C849B84AA84B984C884DF80EE80FD80DF
:1021D0000C811B81AA81B981CE0FD11D0FB6F89455
:1021E000DEBF0FBECDBFED010895A1E21A2EAA1BDE
:1021F000BB1BFD010DC0AA1FBB1FEE1FFF1FA217B7
:10220000B307E407F50720F0A21BB30BE40BF50BB3
:10221000661F771F881F991F1A9469F7609570953C
:10222000809590959B01AC01BD01CF010895A29FBF
:10223000B001B39FC001A39F700D811D1124911D9A
:10224000B29F700D811D1124911D0895991B79E095
:1022500004C0991F961708F0961B881F7A95C9F736
:1022600080950895EE0FFF1F0590F491E02D0994DD
:102270000F931F93CF93DF938230910510F482E088
:1022800090E0E0913103F091320330E020E0B0E0E3
:10229000A0E0309799F42115310509F44AC0281BB4
:1022A000390B24303105D8F58A819B816115710580
:1022B00089F1FB0193838283FE0111C0408151812A
:1022C0000281138148175907E0F04817590799F41C
:1022D000109761F012960C93129713961C933296F6
:1022E000CF01DF91CF911F910F910895009331039A
:1022F00010933203F4CF2115310551F042175307E3
:1023000038F0A901DB019A01BD01DF01F801C1CF5D
:10231000EF01F9CF9093320380933103CDCFFE01CB
:10232000E20FF31F8193919322503109398328835F
:10233000D7CF20912F0330913003232B41F42091EC
:102340001601309117013093300320932F03209111
:102350001401309115012115310541F42DB73EB717
:102360004091180150911901241B350BE0912F0366
:10237000F0913003E217F307A0F42E1B3F0B281750
:10238000390778F0AC014E5F5F4F2417350748F0EE
:102390004E0F5F1F5093300340932F03819391930F
:1023A0009FCFF0E0E0E09CCFCF93DF930097E9F080
:1023B000FC01329713821282A0913103B091320353
:1023C000ED0130E020E01097A1F420813181820FEF
:1023D000931F20912F03309130032817390709F0FC
:1023E00061C0F0933003E0932F03DF91CF91089504
:1023F000EA01CE17DF07E8F54A815B819E014115AE
:102400005105B1F7E901FB83EA8349915991C40F62
:10241000D51FEC17FD0761F4808191810296840F2E
:10242000951FE90199838883828193819B838A83A5
:10243000F0E0E0E012968D919C9113970097B9F52A
:102440002D913C911197CD010296820F931F2091FF
:102450002F03309130032817390739F6309751F59B
:102460001092320310923103B0933003A0932F03E4
:10247000BCCFD383C28340815181840F951FC8177D
:10248000D90761F44E5F5F4F88819981480F591FCA
:10249000518340838A819B819383828321153105F7
:1024A00009F0B0CFF0933203E09331039ECFFD01EA
:1024B000DC01C0CF13821282D7CFB0E0A0E0E3E608
:1024C000F2E10C94C0108C01009751F4CB010E94F2
:1024D00038118C01C801CDB7DEB7E0E10C94DC10F7
:1024E000FC01E60FF71F9C0122503109E217F307A8
:1024F00008F49DC0D901CD91DC911197C617D7077B
:1025000098F0C530D10530F3CE01049786179707B0
:1025100008F3C61BD70B2297C193D1936D937C937D
:10252000CF010E94D411D6CF5B01AC1ABD0A4C0179
:102530008C0E9D1EA0913103B0913203512C412C81
:10254000F12CE12C109731F580912F0390913003FD
:102550008815990509F05CC04616570608F058C062
:102560008091140190911501009741F48DB79EB7A9
:102570004091180150911901841B950BE817F90738
:1025800008F055C0F0933003E0932F03F9017183F5
:102590006083A0CF8D919C91119712966C901297A9
:1025A00013967C901397A815B90559F56C0142E074
:1025B000C40ED11CCA14DB0420F1AC014A195B091A
:1025C000DA011296159780F06282738251834083FC
:1025D000D9016D937C93E114F10471F0D701139646
:1025E000FC93EE93129776CF22968C0F9D1FF901E4
:1025F00091838083F301EFCFF0933203E0933103B3
:1026000069CF4816590608F42C017D01D3019ACFF1
:10261000CB010E9438117C01009749F0AE01B8014E
:102620000E941A13C8010E94D411870153CF10E0F1
:1026300000E050CFFB01DC0102C001900D9241503F
:102640005040D8F70895FB01DC018D91019080196D
:102650000110D9F3990B0895FB01DC0101900D9253
:102660000020E1F7089510E0C3E6D0E004C0FE01C9
:102670000E9432112196C436D107C9F7F894FFCFD2
:10268000FF0E0D0C1211100F31323334353637383E
:10269000392A302300003303800000000000BF010E
:1026A00016014C010C027D015B016F01000000006E
:1026B0001B03AF027E02000000000009160185071F
:1026C0008407456E7465722050617373776F72640E
:1026D0003A0050617373205361766564210053653D
:1026E00074204E657720506173733A0050617373A4
:1026F000204368616E67656421004163636573739D
:10270000204772616E746564210057726F6E672096
:1027100050617373776F72642100414C45525421AC
:0C27200000417474656D7074733A200001
:00000001FF
